:100000000C9456050C949D050C949D050C94671951
:100010000C949D050C949D050C949D050C949D05D8
:100020000C949D050C949D050C94F22A0C94C52B00
:100030000C9451260C949D050C949D050C949D05E3
:100040000C949D050C949D050C949D050C949D05A8
:100050000C949D050C94BC260C949D050C949D0558
:100060000C949D050C949D050C949D050C949D0588
:100070000C949D050C949D050C949D050C949D0578
:100080000C949D050C949D050C949D050C949D0568
:100090000C949D050C949D050C949D050C949D0558
:1000A0000C949D050C949D050C949D0529001E0043
:1000B0001F002000210022002B0014001A0008005D
:1000C00015001700E00004001600070009000A00F0
:1000D000E1001D001B000600190005000000E20001
:1000E000E300095D2C002F003500270026002500C5
:1000F000240023002D00130012000C0018001C0027
:10010000340033000F000E000D000B00E500380036
:1001100037003600100011000000E7002A000A5DD9
:100120002800300001000100010001000100010071
:100130003A003B003C003D003E003F0035001E02FF
:100140001F02200221022202010001000100010021
:100150000100010000000100010001000100010098
:100160000100010001000100010001004500440000
:1001700043004200410040003502270226022502CA
:1001800024022302310230022F022E022D0200002F
:100190000000010001000100010001000100010058
:1001A000010001000100010035001E001F002000B9
:1001B000210022003A003B003C003D003E003F0091
:1001C000400041004200430044004500000001009F
:1001D0000100010001000100010001000100010017
:1001E0000100010001002700260025002400230053
:1001F00000004F005200510050000000310030005C
:100200002F002E002D002E02000001000100010031
:1002100001000100000000000000000000000000DC
:1002200000000000000000000000000000000000CE
:1002300000000000000000000000000000000000BE
:1002400000000000000001000100010001000000AA
:10025000000000000000000000000000000000009E
:100260000000000000000000C95CC75CC55CC25C07
:1002700000000000CA5CC85CC65CC35C00000000F3
:1002800000000100010001000100000032190A0015
:10029000047F3F1F643214643214783C1E1E140A1B
:1002A000052223252628292A2C2D2F3032333536B6
:1002B000383A3B3D3E4042434547494A4C4E5051F7
:1002C000535557595A5C5E6062646668696B6D6F1E
:1002D00071737577797B7D7F81838587898A8C8E21
:1002E00090929496989A9C9E9FA1A3A5A7A8AAAC29
:1002F000AEAFB1B3B4B6B8B9BBBCBEBFC1C2C3C563
:10030000C6C7C9CACBCCCDCED0D1D2D2D3D4D5D604
:10031000D7D7D8D9D9DADADBDBDBDCDCDCDCDCDD37
:10032000DDDDDDDCDCDCDCDCDBDBDBDADAD9D9D81B
:10033000D7D7D6D5D4D3D2D2D1D0CECDCCCBCAC9B3
:10034000C7C6C5C3C2C1BFBEBCBBB9B8B6B4B3B1E2
:10035000AFAEACAAA8A7A5A3A19F9E9C9A9896947D
:1003600092908E8C8A89878583817F7D7B79777552
:1003700073716F6D6B6968666462605E5C5A595731
:10038000555351504E4C4A4947454342403E3D3BF0
:100390003A3836353332302F2D2C2A29282625237A
:1003A00022FFAA7F55400001010101010101010165
:1003B0000202020202020202020303030303030316
:1003C00003040404040404040505050505060606E3
:1003D0000606070707070708080808090909090AA0
:1003E0000A0A0B0B0B0C0C0C0D0D0D0E0E0E0F0F45
:1003F0000F101011111112121313141415151616D3
:100400001717181819191A1A1B1B1C1D1D1E1E1F41
:100410002020212222232424252626272829292A90
:100420002B2C2D2D2E2F30313232333435363738B8
:10043000393A3B3C3D3E3F404142434445464748B4
:10044000494A4C4D4E4F50515354555658595A5B8A
:100450005D5E5F616264656668696B6C6D6F70722A
:10046000737577787A7B7D7E8082838587888A8C96
:100470008E8F91939596989A9C9EA0A2A3A5A7A9CA
:10048000ABADAFB1B3B5B7BABCBEC0C2C4C6C9CBC1
:10049000CDCFD1D4D6D8DBDDDFE2E4E7E9EBEEF077
:1004A000F3F5F8FAFDFF00AE00AF00DA02818FD954
:1004B000F1DB40A4A62EAF00A0C000A1C800AED5BD
:1004C00080A81FD300408D14200000000000000011
:1004D0003E5B4F5B3E003E6B4F6B3E001C3E7C3EE6
:1004E0001C00183C7E3C18001C577D571C001C5EED
:1004F0007F5E1C0000183C180000FFE7C3E7FF0008
:10050000001824180000FFE7DBE7FF0030483A0638
:100510000E00262979292600407F05050700407F27
:1005200005253F005A3CE73C5A007F3E1C1C080052
:10053000081C1C3E7F0014227F2214005F5F005FB6
:100540005F0006097F017F00006689956A00606090
:100550006060600094A2FFA2940008047E0408007A
:1005600010207E20100008082A1C0800081C2A08F9
:1005700008001E10101010000C1E0C1E0C0030384D
:100580003E383000060E3E0E06000000000000005F
:1005900000005F000000000700070000147F147FC8
:1005A0001400242A7F2A12002313086462003649AB
:1005B00056205000000807030000001C22410000E4
:1005C0000041221C00002A1C7F1C2A0008083E084B
:1005D00008000080703000000808080808000000CB
:1005E000606000002010080402003E5149453E00B2
:1005F00000427F4000007249494946002141494D6F
:1006000033001814127F10002745454539003C4A35
:10061000494931004121110907003649494936004D
:10062000464949291E000000140000000040340023
:100630000000000814224100141414141400004196
:10064000221408000201590906003E415D594E007E
:100650007C1211127C007F49494936003E414141DC
:1006600022007F4141413E007F49494941007F09C5
:10067000090901003E41415173007F0808087F00CD
:1006800000417F4100002040413F01007F081422CB
:1006900041007F40404040007F021C027F007F04F9
:1006A00008107F003E4141413E007F0909090600D4
:1006B0003E4151215E007F091929460026494949DA
:1006C000320003017F0103003F4040403F001F20F4
:1006D00040201F003F4038403F006314081463006F
:1006E0000304780403006159494D4300007F4141F0
:1006F0004100020408102000004141417F00040233
:100700000102040040404040400000030708000090
:100710002054547840007F284444380038444444EE
:100720002800384444287F003854545418000008E6
:100730007E0902001824241C78007F080404780035
:1007400000447D4000002040403D00007F102844D0
:10075000000000417F4000007C04780478007C08A1
:10076000040478003844444438007C1824241800D9
:10077000182424187C007C080404080048545454AD
:10078000240004043F4424003C4040207C001C2002
:1007900040201C003C4030403C00442810284400CD
:1007A0004C9090907C004464544C440000083641C6
:1007B0000000000077000000004136080000020140
:1007C000020402003C2623263C00000000000080BA
:1007D000808080000000000080E070180C1830E07D
:1007E00080000010F8901030783010B8FC381000FD
:1007F0000000000000F8FCF800000000000000000D
:1008000000000000001C9C1C00000000F8FCF80028
:1008100000000000001CFCF8C00000000000008088
:10082000E0F87C1C000000F0FCFCFC1C1C1C1C1CE8
:100830001C1C1C000000000000C0F0F8381C1C1C30
:100840001C1C1C3CF8F0E000E0F0F0F0E0ECEEF7EF
:10085000F37020007C7C7C7E007E7E7E7F7F7F002C
:100860000080C0E07E5B4F5BFEC00000C000DCD7B4
:10087000DEDEDED7DC00C00000000000000000006B
:100880000000000000000000000000000000000F59
:10089000BCE0818181838382870C183060C00000B6
:1008A0001FFE90B9FFBB91983C1811133F11000037
:1008B0000000000000FFFFFF00000000000000003B
:1008C0000000000000FFFFFF00000000FFFFFF002E
:1008D00000000000000000030F7FF8E080F0FC3F04
:1008E0000F0100000000003F3F3F1C1C1C1C1C3C73
:1008F00078F8F0E08000000000C3E7FF7E3C387825
:10090000787070F8FFDF87000F1F3F7F7F7F7F7F4A
:100910003F1E0C001F1F1F3F003F3F3F7F7F7F0098
:10092000307B7F7830202030787F3B0003000F7FC2
:100930000F0F0F7F0F0003000000000000000000F9
:1009400000000000000000000000183C2466634125
:10095000C18180808080808081C14162386C4CC6BA
:100960008181808080808081C14362361C180000B4
:100970000000000000FFFFFFC0C0C0C0C0C0C0C07A
:10098000C0800000007FFF7F000000007FFFFFC0ED
:1009900080000000E0E0C0C0C0E0F97F1F07000059
:1009A0000000000000000070F0E0E0C0C0C0C0E047
:1009B000F0F87F3F0F0000000F3F7FF9E0E0C0C07C
:1009C000C0C0C0E0F97F3F1F000000000000000031
:1009D0000000000000000000000000000000000017
:1009E0000000000000000000000000000000000007
:1009F00000000000000000000000000000000000F7
:100A000000000000000000000000040330000000AF
:100A10000E034C0069006C007900350038000000BE
:100A2000120346005F00590055005500430048007E
:100A3000490000000403090409022200010100A08A
:100A4000FA0904000001030101000921110100015C
:100A50002240000705810308000A1201100100006E
:100A6000000851FC580000010102030105010906BC
:100A7000A101050719E029E7150025019508750171
:100A800081029501750881010507190029FF1500EC
:100A900026FF0095067508810005081901290595AE
:100AA0000575019102950175039101C011241FBEC6
:100AB000CFEFDAE0DEBFCDBF04B603FE27C08091E2
:100AC000800690918106A0918206B09183068730BE
:100AD000904BA740B04BD1F4109280061092810643
:100AE000109282061092830614BE84B7877F84BF5B
:100AF0000FB6F894A895809160008861809360009B
:100B0000109260000FBEE0E0F8E3099512E0A0E06B
:100B1000B1E0E6E5F4E602C005900D92AC34B10711
:100B2000D9F726E0ACE4B2E001C01D92A038B207CC
:100B3000E1F70E943A280C94EF310C940000809168
:100B4000BF039091C003A091C103B091C203843050
:100B50009105A105B105E1F128F50097A105B105C1
:100B600071F16FE871E082309105A105B10549F19D
:100B7000BF93AF939F938F938AEA91E09F938F9354
:100B80001F9288E18F9381EE93E09F938F930E9451
:100B9000612E8DB79EB70A960FB6F8949EBF0FBE12
:100BA0008DBF13C088309105A105B10529F08E30A5
:100BB0009105A105B105E1F66CE971E002C063E7BA
:100BC00071E081EE93E00E945A2E81EE93E0089549
:100BD00062E871E0F6CF84E091E00895CF939C0144
:100BE000FB01C0E28C33910520F4DC01A453BE4F1D
:100BF000CC911F92CF933F932F9380811F928F931D
:100C000081811F928F938BEB91E09F938F931F9223
:100C100088E18F9383E692E09F938F930E94612EE9
:100C20008DB79EB70E960FB6F8949EBF0FBE8DBFC0
:100C300080914C0290914D02449761F410924D02C4
:100C400010924C02EEE4F2E080E2819392E0E23610
:100C5000F907D9F780914C0290914D02FC01E25BBB
:100C6000FD4FC083019690934D0280934C02CF912B
:100C7000089583E692E008958EE492E008950C943E
:100C8000AF06CF92DF92EF92FF920F931F93982FB0
:100C9000842F01E010E020E030E06801790104C019
:100CA000CC0CDD1CEE1CFF1C6A95D2F7B701A60127
:100CB00004C0000F111F221F331F9A95D2F7402B3B
:100CC000512B622B732B0091BF031091C003209115
:100CD000C1033091C2030423152326233723401771
:100CE00051076207730741F41F910F91FF90EF9036
:100CF000DF90CF900C9452221F910F91FF90EF90B4
:100D0000DF90CF900C94832280911104869590E01F
:100D10009093FA038093F9030895CF93C82F0E940C
:100D2000F60A811101C0C2E08C2FCF9108950E9474
:100D3000F60A882379F00E949F0560E00E949414CF
:100D40000E94390660E00E9494140E943C0660E014
:100D50000C9494140E94EB0560E00C9478140F93AB
:100D60001F93CF93DF938C01EB018A81882319F0C5
:100D7000C8010E94EE050A308DE5180769F170F48C
:100D800008308DE51807A1F009301D45C9F0C1E014
:100D90008C2FDF91CF911F910F9108950B301D453E
:100DA000B1F7CA8183E0CC2311F10E94522206C020
:100DB000CA81CC2369F380E00E944807C0E0E8CFF5
:100DC000CA8181E0CC2359F00E94522243E062E0C4
:100DD00081E00E944106F2CFCA8182E0F3CF0E94F7
:100DE000832243E062E081E00E944106D1CF0E946D
:100DF0008322CECF81E0089508950C94FC061F93C2
:100E0000CF93DF9300D000D00F92CDB7DEB74983E8
:100E10005A836B8330915E0389819A8131111DC0A1
:100E20006623B9F02223A9F00E94BB23182F682F54
:100E300089819A810E94622369817A81812F0F9032
:100E40000F900F900F900F90DF91CF911F910C9406
:100E5000D8070E949123182FEFCF0E94BB236981EE
:100E60007A81EDCFFC01262F40815181628173810F
:100E700084810C94FF06CF93DF93D82FC92F60E0B5
:100E80000E9432076D2F7C2FDF91CF910C94FD06CD
:100E9000CF93DF9300D000D0CDB7DEB721E030E0B4
:100EA00002C0220F331F8A95E2F73A832983898192
:100EB0000E940F25A981BA81CD01B0E0A0E089830D
:100EC0009A83AB83BC83BC01CD010F900F900F9030
:100ED0000F90DF91CF910C949E210E94FC248111F0
:100EE00002C00E949E250C94A1090C94A4090895A7
:100EF0000C94770781E008950C947A07CF93C82F5C
:100F00000E9478078C2FCF910C947C0708950E9443
:100F10009D1E0E9486072FEF84E39CE021508040B5
:100F20009040E1F700C000000C94E0260F931F935F
:100F3000CF93DF93EC0161E00E9432078C01BE0188
:100F40000E943F06882359F1BE01C8010E947D1608
:100F5000882329F1BE01C8010E94C1168823F9F037
:100F6000BE01C8010E9494178823C9F0BE01C801C0
:100F70000E945F12882399F08A81882339F0011535
:100F80008CE5180751F00E3D1C4579F0CE01DF913C
:100F9000CF911F910F910C94FA060E94870780E071
:100FA000DF91CF911F910F9108950E949E25F7CF59
:100FB000972F70E026E0929F600D711D1124FB01B8
:100FC0009CE3899FE00DF11D1124EE0FFF1FE455F6
:100FD000FF4F859194910895CF93DF930E94D80796
:100FE0000E94C608EC01811523E59207D0F5811512
:100FF00032E5930708F0A2C0811540E29407D8F4C7
:101000008F3F910509F060F4853A910568F40497E3
:1010100038F491E080E0219709F090E0C92FD82FB3
:10102000CE01DF91CF910895805E91090897C0F3BA
:10103000D0E0C0E0F5CFC11581E5D80768F4C1154F
:1010400090E5D90708F05DC0CE019054811590411C
:1010500078F7DF70D06AE4CFDC2FCC27C16FD06A7D
:10106000DFCF811539E59307A0F5811548E5940791
:1010700008F079C0C11585E5D807C8F4C11594E515
:10108000D90708F06BC0CE018370992721E030E0CA
:1010900002C0220F331F8A95E2F7C695C69540E23B
:1010A000C49FE0011124C22BD32BDA68B9CFCE0143
:1010B00095558F3F910511F008F0BACF8C2F0E9403
:1010C0005E09C82FD0E0DC2FCC27CC27DF71D0629F
:1010D000A7CFC1158AE5D80708F44AC0CE019056BB
:1010E0008115904208F0A4CF8D2F8F710E945E0968
:1010F00090E0982F882788279F719C012C2BE9016D
:10110000E6CFCE0174E0969587957A95E1F78370E6
:101110002C2F26952695237040E2249F90011124C0
:10112000382B8C2F8370C1E0D0E002C0CC0FDD1FC4
:101130008A95E2F7C22BD32BDC6872CF8370992794
:1011400021E030E002C0220F331F8A95E2F7C695F6
:10115000C69580E2C89FE0011124ECCFDC2FCC279C
:10116000C46FD06A5DCFD82FCC27C06FD06A58CF5C
:101170008C2F8F700E945E0934E0D695C7953A9502
:10118000E1F7CF70DC2FC82FD0694ACF803E9105A0
:1011900099F1C8F48133910509F476C048F4893295
:1011A000910509F46AC08A32910509F474C0089562
:1011B00089339105D1F082389105B9F085339105D5
:1011C00009F454C00895843E910599F138F4823EA3
:1011D0009105F9F0833E910509F10895863E910548
:1011E00099F1873E9105B9F1089520917106237018
:1011F000A1F080EE90E008952091710620FD52C08C
:101200003091720630FF09C024FF4FC090E080E0AB
:1012100004C02091710622FDF7CF08952091710638
:1012200022FD46C03091720630FDE3CF24FFF5CF9A
:10123000EDCF2091720621FFF0CF8091710684FDE1
:10124000E5CF87EE90E008952091710623FFE5CF6A
:1012500024FDDCCFF6CF2091710623FD2CC0309108
:10126000720631FFE3CF84EE90E00895209171067D
:1012700025FFD3CF89E290E008952091710625FFE4
:10128000CCCF85E390E008952091710626FFC5CF6D
:101290008AE290E008952091710626FFBECF81E397
:1012A00090E0089589E390E0089583EE90E008953A
:1012B00082EE90E0089586EE90E008959091710698
:1012C00092FF06C0282F28712830F9F4877F8460A8
:1012D00093FF06C0282F28712831F1F4877E84619E
:1012E0002091720620FF06C0382F38713830D9F4AB
:1012F000877F816021FF06C0282F28712831D1F413
:10130000877E816194FD877E0895282F2471243083
:10131000F9F68B7F8860DCCF282F2471243101F708
:101320008B7E8861DDCF382F3171313019F78E7F98
:101330008860E0CF282F2171213121F78E7E8861CE
:10134000E1CF0C94840608950C94A309E82FF0E0F3
:10135000EB5FFB4F80810895089580EA8A95F1F74D
:10136000089508950E94130B8091440180914401D7
:1013700095E0811190E09093100485E0891B8093A3
:101380000F04AEE0B2E061E070E08D91E82FE295ED
:10139000EF70F0E041A18F709B0101C0220F8A9590
:1013A000EAF7922F9095942391A382A1822B82A396
:1013B00082E0A331B80749F7A8E0B2E061E070E04D
:1013C0008D91E82FE295EF70F0E041A18F709B01C5
:1013D00001C0220F8A95EAF7922F9095942391A34A
:1013E00082A1822B82A382E0AE30B80749F7EBEFEF
:1013F000F3E0A5E0B4E085E094E011921D928E1731
:101400009F07D9F785E00E94B80A0E946D070C94E7
:101410001D0B0E94F60A8823F9F080910F0490E0DA
:101420008B5F9B4F0E94300B811113C080917B0218
:101430008F5F80937B02863050F0E0910F04F0E0E4
:10144000EB5FFB4F108211821282138214820C9484
:10145000750710927B02FBCF8091100490E08B5FA8
:101460009B4F0E944D0B0C94B1098F929F92AF92AB
:10147000BF92CF92DF92EF92FF920F931F93CF9381
:10148000DF938EE0A82E82E0B82E0BEF13E0912CB4
:10149000CC24C394D12CF50181915F01C82FC29552
:1014A000CF70D0E099A18F70760101C0EE0C8A95C3
:1014B000EAF7892F8E2989A38AA18E2C809488210E
:1014C0008AA30E94AD09E8E0F2E050E040E020E0AD
:1014D0003191A32FA295AF70B0E090968C9190E0DF
:1014E0003F7002C0959587953A95E2F780FD3CC024
:1014F0008C2D042E01C0880F0A94EAF7282B4F5F29
:101500005F4F4630510521F789A1882289A28AA11F
:10151000E82AEAA2F8018081281741F1208381E0BE
:10152000982A0F5F1F4FF3E1AF16F2E0BF0609F0F4
:10153000B2CF6091100470E06B5F7B4F292D45E0C6
:101540008BEF93E00E94B90A0E94090A892DDF916E
:10155000CF911F910F91FF90EF90DF90CF90BF90B0
:10156000AF909F908F90089580E0C8CF80E0D8CF53
:101570000895FF920F931F93CF93DF93F82E092FB7
:10158000162FD72FC42F222349F081E080937E02AB
:101590000E94812690937D0280937C0280917E023E
:1015A0008823A1F080917C0290917D020E94AD265B
:1015B000069760F0EF2DF02FA12FBD2FCE0FDF2F5C
:1015C000D11DEC17FD0741F410927E02DF91CF91FF
:1015D0001F910F91FF90089581918D93F2CF2798DD
:1015E0002F9883B1881F8827881F089580917F02D4
:1015F000811110C08091D80080618093D8008AE169
:101600008A95F1F700C08091D90080FD0AC082E080
:1016100080937F0281E090917F02913009F080E019
:10162000089581E0F5CF0E94EF0A809344010E9463
:10163000F60A81110C94240B08950E94F60A811178
:1016400002C00C942A0B089561E070E085E491E0FB
:101650000C94141961E070E085E491E00C941D197C
:10166000CF93DF93D82FC92F90E080E00E94F61926
:101670009C0180E02115310569F4ED2FFC2FD90183
:10168000AF57BD4F8C9181932F5F3F4F2530310570
:10169000B1F781E0DF91CF910895FC0190E080E007
:1016A0002191DC01AF57BD4F2C93019685309105F8
:1016B000B9F70895AF92BF92CF92DF92EF92FF9267
:1016C0000F931F93CF93DF93362F472FE82FF0E030
:1016D000EA55FC4F71110EC06491762F862FDF9171
:1016E000CF911F910F91FF90EF90DF90CF90BF901F
:1016F000AF900895C72FD0E0249186E0689F7001D5
:1017000011240FEF10E0C701B8010E94912D832F23
:1017100090E0880F991F35E5369FF001379FF00D57
:1017200011248E1B9F0B982F990F980FF801EC1B1B
:10173000FD0B2E9FD0012F9FB00D1124EB2F949FF6
:10174000A0011124452F55276801C41AD50AA60106
:10175000249F6001259FD00C11248D2D5801A91ABA
:10176000B108AC9EA001AD9E500DBC9E500D112441
:10177000452F5527041B150B209FA001219F500DBD
:10178000112463307105D9F09CEFE91693E0F90656
:1017900068F461307105B9F062307105C1F09FEFF6
:1017A000E916F10448F48B2FE52F06C0643071056B
:1017B00089F066307105B9F36E2F722F90CFED2D41
:1017C000822F2B2FF9CFE22F2D2D8B2FF5CF852FA9
:1017D000E22FF7CF822F252FEFCF0895CF93DF93FE
:1017E000982F762F842FE901692F0E945A0B798355
:1017F00068838A83DF91CF910895493708F048E7DD
:101800000C94EE0B80911104982F9E7F61F48170EF
:1018100082608093110480911404893718F088E75E
:101820008093140408958635B0F381708465F1CFF8
:1018300088E090E00C9415310F931F93CF93DF93C2
:101840008B01D82FC92F0E94020CA8016D2F7C2F6D
:1018500088E090E0DF91CF911F910F910C9433318C
:10186000CF93DF9300D000D0CDB7DEB7E1E1F4E055
:1018700083E0808311828FEF828388E783831482E1
:1018800080819181A281B38189839A83AB83BC8358
:10189000BC01CD010F900F900F900F90DF91CF9171
:1018A0000C941C0C8091110480FF02C08695089551
:1018B00080E00895CF93DF9300D000D0CDB7DEB79E
:1018C00080911504833018F48F5F80931504809104
:1018D000110490911204A0911304B091140489830F
:1018E0009A83AB83BC83BC01CD010F900F900F9006
:1018F0000F90DF91CF910C941C0CCF93DF9300D00D
:1019000000D0CDB7DEB780911504882319F081503F
:10191000809315048091110490911204A0911304F6
:10192000B091140489839A83AB83BC83BC01CD013D
:101930000F900F900F900F90DF91CF910C941C0C93
:1019400070E00C94CE12609150018091110480FFE0
:101950000AC080914F0123E0829FC00111248A5E5A
:101960009B4F0C94A00C809151019091520123E067
:10197000829FF0011124EA5EFB4F891750F7118214
:10198000108212828F5F3396F8CF9091110490FFEE
:1019900014C0909151012091520133E0939FF001C6
:1019A0001124EA5EFB4F921710F00C94A30C818374
:1019B000608342839F5F3396F6CF0895CF93DF9382
:1019C00000D00F92CDB7DEB79091110490FF0AC0FE
:1019D0009E012F5F3F4F0E94FD0B4B8169818A81E1
:1019E0000E94C50C0F900F900F90DF91CF9108953A
:1019F000CF93DF93EC01EC81F0E0EF55FD4F449184
:101A0000E1E1F4E0628181810E94DE0C8C818F5FD4
:101A10008C83DF91CF910895CF93DF93EC01E1E1C7
:101A2000F4E0438162818C810E94DE0C8C818F5FA7
:101A30008C83DF91CF9108950F931F93CF93DF9302
:101A400000D00F92CDB7DEB78C0180918602811154
:101A50000AC09E012F5F3F4F48E76FEF0E94FD0BCA
:101A60008A8180938602F8016481613049F0623096
:101A7000F1F08091860240E0662331F040E019C029
:101A80006091860240E080E00E94C50CF8018481EC
:101A900090E0019663E070E00E94A52D84830F9092
:101AA0000F900F90DF91CF911F910F91089540916A
:101AB000860280E060E0E8CFAF92BF92CF92DF92E3
:101AC000EF92FF920F931F93CF93DF9300D000D03C
:101AD00000D00F92CDB7DEB7182FF62E042FD22EDE
:101AE0009091110490FF2BC0E92FE695AE2FB0E046
:101AF000A85EBD4F8C91809317039E7F923081F535
:101B00009E012F5F3F4F812F0E94FD0B4B8169810A
:101B10008A810E94C50C10931204F0921304009362
:101B20001404DD2061F08091110490911204A091C1
:101B30001304B0911404BC01CD010E941C0C279623
:101B40000FB6F894DEBF0FBECDBFDF91CF911F91CE
:101B50000F91FF90EF90DF90CF90BF90AF900895DE
:101B6000823019F400911404D6CF863019F4109104
:101B70001204D1CF8930D9F3893169F6E9518E2F1A
:101B80008170C82EE695F0E0EF55FC4FA590B4901B
:101B9000E12CBB2460915301E61618F00E94A30CBF
:101BA000BACF2E2D30E0EA9CC001EB9C900D1124A1
:101BB00070E00E94912D812FC11013C0860F4091BB
:101BC0005101420F532F511D9A01220F331F240F31
:101BD000351F2A5E3B4F402F6F2D0E94FD0BE39473
:101BE000D9CF861BECCF282FE1E1F4E0818143813E
:101BF0006281865F0C945C0D81E00C94F30D282FBC
:101C0000E1E1F4E08181438162818A500C945C0DB2
:101C100081E00C94FF0D282FE1E1F4E0628131E1D5
:101C2000630F08F46FEF438181810C945C0D81E0B8
:101C30000C940B0E282FE1E1F4E0628131E1631B8B
:101C400008F460E0438181810C945C0D81E00C9488
:101C50001A0E282FE1E1F4E0438131E1430F08F44B
:101C60004FEF628181810C945C0D81E00C94290E10
:101C7000282FE1E1F4E0438131E1431B08F440E027
:101C8000628181810C945C0D81E00C94380E20E01F
:101C90000C945C0DEF92FF921F93CF93DF93EC01B6
:101CA00010E0EE24EA94F12C60915301161770F0C5
:101CB0000E94A30C9A818C8190FF27C08F5F8C8338
:101CC000DF91CF911F91FF90EF90089520915101E6
:101CD000422F410F5527551FCA019A01220F331F6A
:101CE000280F391F2A5E3B4F70E0C7010E94A52DC7
:101CF000962F8C814091140460911304199F800DDC
:101D000011240E94FD0B1F5FCFCF8150D8CFBF920F
:101D1000CF92DF92EF92FF920F931F93CF93DF93B7
:101D2000FC0182810FEF80FF01E010E08091530100
:101D30001817C0F00E94A30C80918802013009F0AE
:101D400054C0811102C08091530181508093880258
:101D5000DF91CF911F910F91FF90EF90DF90CF9087
:101D6000BF900895C0915101C12ED12CCC0DDD2D15
:101D7000D11DCE01880F991FC80FD91FCA5EDB4F36
:101D8000198218821A8234E0E32EF12CB12C809152
:101D900088028B0D8C311CF16BE10E94832D892F01
:101DA000082E000C990BC816D90691F480911404E2
:101DB0008E9DA0018F9D500D1124559547955595E9
:101DC00047959E0160911304809112040E94FD0BBF
:101DD000B00EF1E0EF1AF108D1F61F5FA7CF87FF31
:101DE000DFCF90915301890FDBCF90E00196609196
:101DF000530170E00E94A52DA9CF0F931F93CF939D
:101E0000DF93809151019091520123E0829FF00174
:101E10001124EA5EFB4F891740F1C0E0D3E06091E6
:101E20005301C61740F10E94A30C20914D018091EF
:101E30008702820F8093870290914E01920F9093B8
:101E40004E01191654F4082E000C990B40915301C1
:101E50004150550B841795071CF0219520934D0197
:101E6000DF91CF911F910F910895118210821282FC
:101E70008F5F3396D0CF0C2F10E070E0C8010E9426
:101E8000A52D20915101820F482F50E0209187020B
:101E9000022E000C330B02171307BCF020914E01E9
:101EA000022E000C330B201731077CF08D9F900120
:101EB00011242A5E3B4F40911404609113048091D9
:101EC00012040E94FD0BCF5FAACFFA01EE0FFF1F95
:101ED000E40FF51FEA5EFB4F118210821282F3CFEE
:101EE0000F931F93CF93DF938C01FC018481958125
:101EF00001968170992795838483C0E0D5E5809110
:101F00005301C81730F0DF91CF911F910F910C94BE
:101F1000A30C20915101422F4C0F5527551FCA0188
:101F20009A01220F331F280F391F2A5E3B4F8C2F37
:101F30008695F80144815581840F952F911D8170FC
:101F400040911404609113048D9F802D11240E94F0
:101F5000FD0BCF5FD4CF0F931F93CF93DF93EC0193
:101F600010E000E0909153019017110609F06CF415
:101F70000E94A30C8C8190E00196817099278C833C
:101F8000DF91CF911F910F91089520915101A801E8
:101F9000420F511D9A01220F331F240F351F2A5E55
:101FA0003B4F4C81609113048091120496959017D9
:101FB000110651F04CF0442349F0409114040E9462
:101FC000FD0B0F5F1F4FCECF4423B9F340E0F7CF97
:101FD0008F929F92AF92BF92CF92DF92EF92FF9239
:101FE0000F931F93CF93DF93FC01B280948081E025
:101FF000848300E015E05BE4A52E88248394EE241E
:10200000EA94F12C7BE4C72ED12C80915301081760
:1020100070F0DF91CF911F910F91FF90EF90DF90C3
:10202000CF90BF90AF909F908F900C94A30CC02F37
:10203000D0E01C9FF0011D9FF00D1124E757FD4FCC
:1020400091101CC01382128220915101CE01820F87
:10205000911D9C01220F331F280F391F2A5E3B4F11
:102060001C9FF0011D9FF00D1124E757FD4F428189
:10207000618180810E94FD0B0F5FC7CF23812223E6
:1020800079F12150238334818A2D821B311101C0C3
:10209000822F1C9FF0011D9FF00D1124E757FD4F6B
:1020A00090911404899FC0011124B6010E94912DC2
:1020B0006283211104C0332311F01482A38222E031
:1020C0002B1510F21C9FF0011D9FF00D1124E757F6
:1020D000FD4F809112048083809113048183B4CFDB
:1020E0000E94272E823091400CF0AECF82E08B15FB
:1020F00030F50E94272EB7010E94A52D1C9FF001EC
:102100001D9FF00D1124E757FD4F808322E02B1512
:10211000C8F40E94272E209113042695622F70E0A8
:102120000E94A52D280F1C9FF0011D9FF00D11246A
:10213000E757FD4F21831282A382848285CF80914D
:102140001204DCCF20911304EECFCF93DF9300D0A5
:1021500000D0CDB7DEB7E1E1F4E080818E7F8083EF
:1021600080819181A281B38189839A83AB83BC836F
:10217000BC01CD010E941C0C109218039FEFA0E738
:10218000B2E09150A040B040E1F700C000000F90D5
:102190000F900F900F90DF91CF910C94A30C609152
:1021A0001104669570E04BE050E084E591E00E94F8
:1021B000402E892B19F481E0809318030E94812618
:1021C00090931103809310030895CF93DF9300D071
:1021D00000D0CDB7DEB79091110490FF41C091704F
:1021E000811134C0926090931104662381F0809134
:1021F000110490911204A0911304B09114048983E6
:102200009A83AB83BC83BC01CD010E941C0C6091FE
:102210001104669570E04BE050E084E591E00E9487
:10222000402E892BD1F01092180381E08093130384
:102230004091140460911304809112040F900F9048
:102240000F900F90DF91CF910C94470E8B3210F0CE
:102250009465C9CF880F982BC6CF0E94CF10E5CFC9
:102260000F900F900F900F90DF91CF910895682FEE
:102270008091110486958F5F8B3208F081E00C9479
:10228000E51081E00C943711682F90911104969518
:102290008FEF890F913009F48AE20C94E51081E008
:1022A0000C94441161E00C94E510E1E1F4E08081CC
:1022B0008160808386950C9452118091110480FD79
:1022C0000C94A5100C94551160E00C94E5108091CD
:1022D000160381112EC00E94FC24811104C00E94AB
:1022E0009E250E94300C0E94180C6093110470937C
:1022F000120480931304909314046E7F61F40E947F
:10230000300C0E94180C6093110470931204809397
:102310001304909314040E94020C109218038091ED
:10232000110480FF03C086950E94641181E08093B0
:10233000160308950F931F93CF93DF938091180393
:10234000882309F49DC080911703E0911104E6955C
:10235000E81BE09312038230C9F5F0E0E356FD4F2D
:10236000E491CE2FD0E008EF1CE080911303882386
:1023700089F0109213030E9481269E0120953095CA
:10238000280F391F30931103209310031092150367
:102390001092140380911003909111030E94AD26B6
:1023A0008C179D0708F46CC0E0911003F0911103A5
:1023B000CE0FDF1FD0931103C093100380E193E091
:1023C000F801DF91CF911F910F910994863049F464
:1023D000F0E0E656FD4FE491CE2FD0E00CE01DE09A
:1023E000C4CF893051F4E695F0E0E956FD4FE49111
:1023F000CE2FD0E00AE41EE0B8CF8F3051F4E6953E
:10240000F0E0EC56FD4FE491CE2FD0E007E81EE05F
:10241000ACCF853149F4F0E0EF56FD4FE491CE2F7B
:10242000D0E00DEF1EE0A1CFC8EED3E000E71FE043
:10243000883109F49ACF833239F4EFE8F2E0C5919C
:10244000D4910CE11DE091CFC4EFD1E00BEA1FE085
:10245000843209F48ACFC0EDD7E00DEE1BE085325F
:1024600009F083CF8E2F63E00E94772DE92FF0E0F3
:10247000E457FD4FE491CE2FD0E008EE1FE075CF7A
:10248000DF91CF911F910F910895FA018111099465
:10249000FB01FDCFCF93DF93C82FD62F0E94520CA4
:1024A0008C1740F00E94520C8D1720F4DF91CF91D1
:1024B0000C9441118C2FDF91CF910C9452111F93EA
:1024C000CF93DF93EC01FB011281111110C00E9428
:1024D00058248272FE01E25CFC45E431F10508F00B
:1024E0005BC0EF50FE4C0C94B92D0E945D11812F02
:1024F000DF91CF911F9108954FE451E161E471E1C3
:102500000E944512F4CF41E451E16FE471E1F8CF4C
:1025100048E05EE06CEF7DE0F3CF4CEF5DE068E01B
:102520007EE0EECF46E25EE067E17EE0E9CF47E1A4
:102530005EE066E27EE0E4CF44E45EE065E37EE0F8
:10254000DFCF45E35EE064E47EE0DACF4DE75CE0B8
:102550006AE57CE0D5CF4AE55CE06DE77CE0D0CF72
:1025600081E00E945211C3CF65E082E00E944A12CE
:10257000BECF68E086E0FACF6EE089E0F7CF64E195
:102580008FE0F4CF67E185E1F1CF88E1EACF62E245
:1025900089E1ECCF83E2E5CF11E0A9CF9C01AB014B
:1025A000539A6BB1677F7BB17860EFB7F894CA013B
:1025B000880F991F840F951F820F931F821793070F
:1025C00041F4EFBF8FE594E00197F1F700C0000000
:1025D0000895D9014D919D0158E07BB9000000C0DC
:1025E00047FF6BB9440F000000C000C000C06BB9CA
:1025F00000C05A9591F7E2CFCF92DF92EF92FF920F
:102600000F931F93CF93DF936C017B0164E670E01F
:1026100088E70E94C417EC0197FD12C010E000E0AB
:10262000F601E00FF11F849164E670E00E9420182B
:10263000EC01892B29F40F5F1F4F0E151F0581F741
:102640000E94AD18CE01DF91CF911F910F91FF90A5
:10265000EF90DF90CF900895E7E6F4E080E092E01D
:10266000DF019C011D9221503040E1F7F0936C0690
:10267000E0936B068FEF9FEF9093450380934403A5
:102680000895CF93DF9300D000D0CDB7DEB70E947E
:102690008D068093400380FD15C080E880933F0342
:1026A0000E94BE176DE070E08DEB94E00E94FC127A
:1026B000892B51F080E00F900F900F900F90DF91D9
:1026C000CF91089580E2EACF8091400363E070E00B
:1026D00081FD28C08AEB94E00E94FC12892B51F7FF
:1026E0006DE070E08AEA94E00E94FC12892B11F7F9
:1026F0000E948D26DC01CB01805A9541AF4FBF4F20
:102700008093670690936806A0936906B0936A0663
:102710000E942C1381E08093430380934203109224
:102720004103C9CF87EB94E0D7CF20913F0336E038
:10273000839FC0011124629F800D911D112481157A
:1027400022E0920714F090E080E089599B4F90932B
:102750006C0680936B06089520916B0630916C0691
:102760002156344040913F03642F70E0C9010E941C
:10277000912D481B463010F4240F311D211582E0A5
:10278000380710F030E020E029593B4F30936C06B9
:1027900020936B0608951F93CF93DF93982F162FE6
:1027A00081E09A3019F09D3031F480E0DF91CF91D3
:1027B0001F910C944514C0916B06D0916C0686E075
:1027C000FE01A9E1B3E001900D928A95E1F7903EF8
:1027D000C8F086E0FE0111928A95E9F711111EC03A
:1027E000C0916B06D0916C0646E050E0BE0189E1D5
:1027F00093E00E944D2E892BF9F4DF91CF911F9128
:102800000C94AC13F6E09F9FB001112466537B4FEC
:1028100046E050E0CE010E94372EE0CFE0916B06FB
:10282000F0916C069F012A5F3F4F2E173F07C1F2C0
:10283000808180958193F9CFC756D440CE0125E0A1
:10284000969587952A95E1F721E030E0A90102C02D
:10285000440F551F8A95E2F7CA01409144035091F5
:102860004503842B952B269645E0D695C7954A952A
:10287000E1F702C0220F331FCA95E2F7822B932B98
:102880009093450380934403B8CFCF93382FE091C2
:102890006B06F0916C06E756F44020913F03622FDF
:1028A00070E0CF010E94912D281B822F332369F005
:1028B00066E00E94772DC82FC15010F4CF91089583
:1028C00060E080E20E94CB13F7CF9F01280F311DFB
:1028D0002115324018F080E0F0E0E0E08E0F9F2FED
:1028E000911D89599B4F90936C0680936B06E6CFA0
:1028F000FF920F931F93CF93DF93EC01F62EFC0111
:1029000001900020E9F78F0101501109C017D1078C
:1029100030F0DF91CF911F910F91FF9008956F2DAF
:1029200089910E94CB13F2CF0E94781481E00C941D
:102930004514CF93DF9300D000D0CDB7DEB70E940F
:102940008D26DC01CB01805A9541AF4FBF4F80935C
:10295000670690936806A0936906B0936A06809113
:102960004203811108C062E070E088EA94E00E94AE
:10297000FC12892B49F0809142030F900F900F9029
:102980000F90DF91CF91089581E080934203F3CFC0
:102990002F923F925F926F927F928F929F92AF920F
:1029A000BF92CF92DF92EF92FF920F931F93CF933C
:1029B000DF9320914403309145032115310531F017
:1029C0008091410361E070E0882399F0DF91CF911D
:1029D0001F910F91FF90EF90DF90CF90BF90AF903D
:1029E0009F908F907F906F905F903F902F90089571
:1029F0008F5F082F10E01B01082E02C0220C331C31
:102A00000A94E2F7A10142235323452B89F39091C5
:102A1000400390FD44C08295880F807680936101C9
:102A20009801369527953695279520936401815E08
:102A3000809362011092650124E630E047E050E0A7
:102A40006FE571E088E70E944F18892B09F0BECF2F
:102A5000A80125E0440F551F2A95E1F78091400316
:102A600080FD2BC049595B4F04E610E020E230E0C6
:102A700060E488E70E947C18892B09F0A7CF0E94A8
:102A80009914E101C095D09580914403909145033C
:102A9000C823D923D0934503C093440397CF880F0D
:102AA000880F880F8093610110926401895F809381
:102AB000620183E080936501BFCFEFE1F3E080E244
:102AC000DF011D928A95E9F7A7E4B2E003E412E082
:102AD0008BE4C82E82E0D82E97E0592E7724739489
:102AE0008D91E80129918E01240F352F311D29592F
:102AF0003B4FE82FF0E0E15EFC4F90E080E0652C7A
:102B0000681A872C082E01C0880C0A94EAF779010C
:102B1000A12CE701B9907E01B820662D6A19677073
:102B2000962E062E000C770BDB2D01C0DD0F9A943C
:102B3000EAF77195619571096770772701C0B694BE
:102B40006A95EAF7BD2A6081962E9B289082A3940D
:102B500068E0A612DECF019631968830910579F6AD
:102B6000CA16DB0609F0BCCF04E610E020E230E034
:102B70004FE153E07DCF80914203882369F062E00A
:102B800070E086EA94E00E94FC12892B19F0809193
:102B900042030895109242038091420391E08927F5
:102BA0000895CF93DF9300D000D0CDB7DEB78091EA
:102BB0004303882371F160E080E00E9495130E9436
:102BC00097060E94C81480914203882311F10E9445
:102BD0008D2669837A838B839C838091670690918D
:102BE0006806A0916906B0916A0629813A814B81F5
:102BF0005C81281B390B4A0B5B0BDA01C901B7FD5D
:102C000008C00F900F900F900F90DF91CF910C9410
:102C1000BB150F900F900F900F90DF91CF910895FB
:102C20000F931F93CF93DF93C62FD42F022FFC0156
:102C300082818823C9F0609348030E948126909383
:102C400047038093460380E28C0F883008F050C021
:102C5000C77081E001C0880FCA95EAF7DF91CF9174
:102C60001F910F910C94101C10914803161335C03E
:102C700080914603909147030E94AD2684369105CA
:102C800060F5C0E2CD0F1D17B9F080E2810F8830EA
:102C900040F4177081E001C0880F1A95EAF70E948E
:102CA000171CC83048F481E09D2F977001C0880F31
:102CB0009A95EAF70E94101C802F0E94FD1BC830D5
:102CC000B8F4D77081E001C0880FDA95EAF7DF9198
:102CD000CF911F910F910C94171C80E28C0F8830BC
:102CE00038F4C77081E001C0880FCA95EAF7EFCFCA
:102CF000DF91CF911F910F9108959C01CB01233F4C
:102D00004CE5340769F190F4283DFCE53F0721F1DB
:102D1000293D4CE5340781F1273D3C45B1F0FC01EC
:102D20008281882361F1109248030895253FFCE5D4
:102D30003F07D1F0263F4CE53407D1F0243F3C4516
:102D400071F727E245EE64EE03C026E241EE61EE44
:102D50000E94101680E0089527E245EE65EEF8CF58
:102D600026E241EE60EEF4CF26E241EE62EEF0CFD5
:102D700027E245EE66EEECCF28E241E0EFCF81E0BE
:102D80000895CF93DF93EC01FB018281882309F43E
:102D9000C9C0C631FCE5DF07E0F4C2309CE5D907C5
:102DA000F0F00E9414259093720680937106C6314C
:102DB000ECE5DE0720F5C230FCE5DF0798F48091F2
:102DC0007106909172060E9422250E949D1E80E04D
:102DD00006C09E012A5F3C452930310510F3DF9182
:102DE000CF910895FE01E350FC458091710681600A
:102DF000E331F10588F4EB5FFD4C0C94B92DCA5F0B
:102E0000DC45C930D105D8F6C85EDD4CFE010C9416
:102E1000B92D80917106826080937106D0CF809128
:102E200071068460F9CF809171068860F5CF80913A
:102E30007206816080937206C2CF809172068260B2
:102E4000F9CF809171068061E7CF80917106806231
:102E5000E3CF809171068064DFCF0E949D1E809138
:102E600071068068D9CF809171068C60D5CF809132
:102E700072068360DFCF809171068E7FCDCF809107
:102E800071068D7FC9CF809171068B7FC5CF8091F0
:102E90007106877FC1CF809172068E7FCBCF8091E4
:102EA00072068D7FC7CF809171068F7EB5CF8091DE
:102EB00071068F7DB1CF809171068F7BADCF0E945F
:102EC0009D1E809171068F77A7CF80917106837FB9
:102ED000A3CF809172068C7FADCF8091710682FB6B
:102EE000992790F921E0922790FB82F990FB83F9D2
:102EF00093CF80917206982F909591708E7F892B39
:102F000090FB81F997CF0E949D1E90917106892FA9
:102F100097FB87F9805880CF81E00E94A0254FCF92
:102F200080E0FBCF81E05BCFCF93DF93EB01863175
:102F30009C4511F50E9458249A81992399F08A7A28
:102F400091E009F490E090934903811109C089E26E
:102F50000E9433240E94992480E0DF91CF9108954C
:102F600085E3F6CF80914903811104C089E20E9474
:102F70003A24F0CF85E3FBCF81E0EFCF1092B90088
:102F80008CE08093B8000895EF92FF920F931F9307
:102F9000CF93DF93182FEB011092BC0084EA80934B
:102FA000BC000E9481267C018091BC0087FF27C065
:102FB0008091B900887F883029F08091B900887F9E
:102FC0008031D9F51093BB0084E88093BC000E9447
:102FD00081268C018091BC0087FF24C02091B9001C
:102FE000287F90E080E02831B1F081E090E020344B
:102FF00011F490E080E09195819591090CC0CF3F4C
:10300000DC0791F20E9481268E199F098C179D077B
:1030100058F28EEF9FEFDF91CF911F910F91FF90AC
:10302000EF900895CF3FDC07A9F20E948126801B14
:10303000910B8C179D0770F2ECCF8FEF9FEFEBCFCA
:103040000F931F93CF93DF93EB018093BB0084E832
:103050008093BC000E9481268C018091BC0087FF78
:1030600011C02091B900287F81E090E0283211F44E
:1030700090E080E0919581959109DF91CF911F912A
:103080000F910895CF3FDC0741F30E948126801BFA
:10309000910B8C179D0708F38EEF9FEFEECFCF9229
:1030A000DF92EF92FF920F931F93CF93DF936B0109
:1030B0008A01F22EE32E622F732F0E94C417AC01F7
:1030C000E6010C0D1D1DC017D10711F057FF0DC0F3
:1030D00084E98093BC00CA01DF91CF911F910F91C9
:1030E000FF90EF90DF90CF9008956F2D7E2D899106
:1030F0000E942018AC01E7CFCF92DF92EF92FF92AF
:103100000F931F93CF93DF93C62F6A017901B80104
:103110000E94C4179C0197FD0DC0B8018C2F0E941E
:1031200020189C01E601EC0CFD1CCE15DF0511F00A
:1031300037FF0DC084E98093BC00C901DF91CF91B6
:103140001F910F91FF90EF90DF90CF900895B801FD
:1031500089910E9420189C01E8CF84E98093BC00EB
:1031600008958EE14A9B02C08150E1F74A9BFECF51
:1031700008955A9880E28A95F1F75A9A0895FC01C9
:103180003BE03A95F1F720E090E080E031E040E16B
:103190004A95F1F7880F4A9B02C08160232742E0DD
:1031A0004A95F1F7000040E14A95F1F79F5F6913F6
:1031B000EECF90E19A95F1F799B132E03A95F1F7B7
:1031C000000040E14A95F1F792FB992790F9922788
:1031D0002081920F90830895EF92FF920F931F9397
:1031E000CF93DF930F92CDB7DEB719828C017C01AC
:1031F000E60EF11C0E151F0561F481E09981911115
:1032000080E00F90DF91CF911F910F91FF90EF9091
:1032100008950E94B11868E0CE0101960E94BF187F
:10322000F80181938F01E6CF90934C0380934B0379
:1032300060934A03529A5A9A089590934C0380934C
:103240004B0360934A0352985A9AEA9AE9E6F0E0EF
:1032500080818F7C808308956150770B91E001C05D
:10326000990F6A95EAF720E031E0911108C0222316
:1032700091F05A9A80E28A95F1F75A980895492F69
:10328000482339F05A9A232740E24A95F1F7969558
:10329000ECCF5A98F9CF5A98EDCFFF920F931F9326
:1032A000CF93DF93EC018C01060F111DC017D107DE
:1032B00031F4DF91CF911F910F91FF900895F99014
:1032C0000E94B91868E08F2D0E942C19EFCF1F9231
:1032D0000F920FB60F9211240F931F932F933F93CA
:1032E0004F935F936F937F938F939F93AF93BF930E
:1032F000EF93FF93CF93DF930F92CDB7DEB7198291
:103300000E94B11867E0CE0101960E94BF18082FF5
:10331000069506950695982F92959570202F257005
:10332000920F292F2370969596958770920F891387
:1033300044C08981811141C080914A038017E8F11E
:1033400020E12A95F1F75A9A529A82E08A95F1F78C
:1033500000C0A8E00A9FC001112400914B03109106
:103360004C03080F191F5A98F8016581662321F054
:10337000868197810E944D190E94B918F0E1FA9553
:10338000F1F75A9852985A9A20E12A95F1F7D80104
:1033900012966C911297662331F113968D919C9140
:1033A0000E94EC18D801ED91FC91882311F088E07F
:1033B00001C082E080830E94B1180F90DF91CF910D
:1033C000FF91EF91BF91AF919F918F917F916F91FD
:1033D0005F914F913F912F911F910F910F900FBED1
:1033E0000F901F901895ED91FC91E1CF0F931F93D3
:1033F000CF93DF939C0180914A03821713060CF44C
:1034000071C0890183E0000F111F8A95E1F7C09117
:103410004B03D0914C03C00FD11FF894529A5A9885
:1034200085E08A95F1F70000922F969595702570AA
:10343000920F892F837096959695980F092B0E946D
:10344000B91800C067E0802F0E942C1980E18A958E
:10345000F1F752985A9A4A9B17C087E090E04A9930
:1034600015C06D81662321F18E819F810E94EC1829
:1034700081111EC0529A5A9AE881F98182E08083B4
:10348000789482E090E00DC000C0E5CF019771F420
:10349000529A5A9AE881F98181E08083789481E098
:1034A00090E0DF91CF911F910F91089500C0D7CF89
:1034B0000E94B11880E28A95F1F75A98529A80E1F9
:1034C0008A95F1F76A81662321F08B819C810E94A5
:1034D0004D190E94B918E881F9811082789490E022
:1034E00080E0DFCF84E090E0DCCF909352038093C4
:1034F00051030895E0915103F0915203309721F068
:103500000190F081E02D099480E00895E09151034D
:10351000F0915203309721F00280F381E02D09945D
:10352000089520914F03309150032817390771F007
:103530009093500380934F03E0915103F091520315
:10354000309721F00680F781E02D099408952091AD
:103550004D0330914E032817390771F090934E03B5
:1035600080934D03E0915103F0915203309721F085
:103570000084F185E02D0994089585B7806885BFA2
:1035800085B7806885BF0895089508950C94C41A7E
:1035900008950C94C81A0E94BD1A0E94C51A0C9472
:1035A000C61A0C94F60A0E9478260E94B20980E09E
:1035B0000E9441130E9404270E9467110C94C91AAB
:1035C000AF92BF92CF92DF92EF92FF920F931F9331
:1035D000CF93DF9300D000D00F92CDB7DEB70E941B
:1035E000350AB82E0E94D11A882309F464C084E5F4
:1035F000C82E83E0D82E10E000E0A02E802F0E947D
:10360000A609F82EF601E1906F01E81609F44DC005
:103610008091D40381FD0E94AC092E2D2F2590E0CE
:10362000EE24E394822F8E21D9F19983AA82FE2081
:1036300081E009F480E08B830E9481268160782FED
:103640009D838C8349815A816B818D810E947C1B73
:10365000F801EC5AFC4F8081E826E0820E949A1122
:103660000E94D115B1100E9499140E947A1A90916B
:103670005303891789F10E947A1A809353030F909C
:103680000F900F900F900F90DF91CF911F910F919E
:10369000FF90EF90DF90CF90BF90AF900C947E079B
:1036A0009F5FEE0C963009F0BDCF0F5F1F4F0A30C1
:1036B000110509F0A2CF8FEF89838A831B820E94B4
:1036C00081268160782F9D838C8349815A816B810B
:1036D0008D810E947C1BC2CF0F900F900F900F9096
:1036E0000F90DF91CF911F910F91FF90EF90DF909E
:1036F000CF90BF90AF900895CF93DF93CDB7DEB753
:103700002B970FB6F894DEBF0FBECDBF4F835887FF
:1037100069877A878B871E8285E0FE013796DE01F6
:10372000119601900D928A95E1F749815A816B813A
:103730007C818D819E812B960FB6F894DEBF0FBEE3
:10374000CDBFDF91CF910C94EE20FC01808191815F
:103750000C94FD23CF93C82F882329F18CEF8C0F75
:10376000813AA0F46C2F80916601909167010E94CC
:10377000B725882329F08C2F0E943A240E9499248F
:103780008C2F0E943324CF910C94992480E28C0FCB
:10379000883048F4C77081E001C0880FCA95EAF705
:1037A0000E945B24F0CFCF910895882329F19CEFEC
:1037B000980F913A20F40E943A240C94992490E2B4
:1037C000980F983050F4877091E001C0990F8A9556
:1037D000EAF7892F0E946124F0CF9BE5980F933080
:1037E00020F490E080E00C94911A885A873120F4FC
:1037F00090E080E00C94A71A0895CF93C82F0E9400
:10380000AA1BC93349F42FEF87EE93E02150804083
:103810009040E1F700C000008C2FCF910C94D51B95
:10382000882321F00E945B240C9499240895882316
:1038300021F00E9461240C9499240895BF92CF92A4
:10384000DF92EF92FF920F931F93CF93DF9300D0FD
:1038500000D00F92CDB7DEB76C016D837983FC0188
:10386000158112951F70028101110E947A240E9415
:103870005124E82E8823A1F0002309F450C0898147
:10388000807F803429F08D81805E883008F447C0C5
:1038900082E00E94E4240E94512491E0E82EE9266F
:1038A000B980B2949FE0B922F8E0BF1609F4D7C0FE
:1038B000FB15B8F121E02B1508F046C08EE08B0D0A
:1038C0008F70823008F476C0EB2DE850FF0B3497F0
:1038D00020F40E947A1A0E947E07EE2009F4D5C1D6
:1038E0000E944D2480FDD1C1F60112820E9447241E
:1038F0000E945222C6010E946B1E0E9447240F9014
:103900000F900F900F900F90DF91CF911F910F911B
:10391000FF90EF90DF90CF90BF900C948322E12C2A
:10392000BFCF39E0B31609F444C186E08B0D8F7028
:10393000823050F68D81823F09F04CC189818F71B0
:10394000002309F47AC143C119811F709981907FC6
:1039500011F01295107F0023B1F0112361F08D81D9
:10396000805E883018F00D81011109C0812F0E94FE
:103970005B240E9499248D810E94AA1BA5CF812FD0
:103980000E946C24F6CF8D810E94D51B112309F46F
:103990009BCF8D81805E883018F00D81011106C0AB
:1039A000812F0E9461240E9499248ECF812F0E9432
:1039B0007224F9CF29812F70F22E3981307F303275
:1039C00019F0F29480EFF8228D81882369F081301C
:1039D00049F1002391F1112351F1F601858180FF16
:1039E000CACF8F70858323C0002381F0111106C0D8
:1039F0000E9480248F290E94101C66CF1130C1F7CD
:103A00000E9480248F290E9486245ECF111106C057
:103A10000E948F248F2D0E94171C56CF113009F45D
:103A200053CFF6CF002329F0163008F04DCF8F2D5D
:103A3000E2CF153008F048CFEDCF112359F30D81B7
:103A4000093349F41FEF27EE33E011502040304096
:103A5000E1F700C000008D810E94D51B35CF898120
:103A6000837009F050C001112FCF2D81229526952A
:103A70002770220F220F8D818F7090E0B0E0A0E0C0
:103A8000022E04C0880F991FAA1FBB1F0A94D2F7E9
:103A90000D8140E050E0BA0104FF0FC04FE050E05C
:103AA00060E070E004C0440F551F661F771F2A9521
:103AB000D2F7409550956095709519811695169599
:103AC00013701D838A019B01082B192B2A2B3B2B7A
:103AD00009831A832B833C831D8169817A818B81C1
:103AE0009C81123051F0133059F0113019F00E94BE
:103AF000C821EACE0E94A021E7CE0E94F021E4CEA8
:103B00000E949E21E1CE8695002311F0898181706B
:103B1000882309F4D9CE2D81229526952770220F6E
:103B2000220F8D818F7090E0B0E0A0E0022E04C0E3
:103B3000880F991FAA1FBB1F0A94D2F70D8140E07E
:103B400050E0BA0104FF0FC04FE050E060E070E0C9
:103B500004C0440F551F661F771F2A95D2F7409562
:103B600050956095709519811695169513701D8363
:103B70008A019B01082B192B2A2B3B2B09831A83C3
:103B80002B833C831D8169817A818B819C811230DA
:103B900051F0133059F0113019F00E94112394CED6
:103BA0000E94E92291CE0E9439238ECE0E941C22CF
:103BB0008BCE19811F701983002329F0812F0E9459
:103BC00052228D8118CF8D810E94171C89810E94FD
:103BD00083227ACE2D81233F60F4203FE1F0213F04
:103BE00041F1002309F440C01111C5CE89818F71C4
:103BF00024C03D81333F21F1343F99F7002351F137
:103C000009810F710983802F0E94522263E089810C
:103C10000E94CF2459CE002341F0153008F054CE35
:103C200089818F710E94B8224FCE163008F04CCE99
:103C3000F7CF89818F71002351F20E94522244CE26
:103C4000002329F089818F710E942D223DCE0E9490
:103C500028223ACE81E00E94E424123008F434CEC7
:103C600082E00E94E42430CE112361F01D811933DB
:103C700009F0F1CE2FEF37EE83E021503040804045
:103C8000E1F7E7CE89818F71A2CF0F900F900F904F
:103C90000F900F90DF91CF911F910F91FF90EF90B8
:103CA000DF90CF90BF9008950F931F93CF93DF9332
:103CB000EC01688179818A810E9409248C010E942B
:103CC00061230E949D21B801CE01DF91CF911F9108
:103CD0000F910C941E1CCF93DF93EC018B819C8180
:103CE000892B29F08881998189238F3F59F4DF91AD
:103CF000CF910895CE010E94541ECE01DF91CF9145
:103D00000C943B07CE010E9496078111F3CF0E94CD
:103D10005124882361F38A81882349F382E0DF916B
:103D2000CF910C94E4240E947A240E947D240C9468
:103D300099240E9441240C94931E0E9469240C949F
:103D4000991E282F892F82958F70903C80F48A309D
:103D5000B0F4843020F4823090F480E0089586300E
:103D6000E1F781E0283E88F0213FB9F70EC08C30A2
:103D700011F08F3091F793FB882780F9089581E047
:103D8000203F39F018F4283E40F70895243F29F7E2
:103D9000FCCF08950E94FD230C94A11ECF93DF93C6
:103DA00000D000D00F92CDB7DEB70F900F900F90DC
:103DB0000F900F90DF91CF910895CF93DF9300D0B4
:103DC00000D000D0CDB7DEB726960FB6F894DEBF90
:103DD0000FBECDBFDF91CF9108951F93CF93DF9397
:103DE000E0915F0316E0809160038E1304C0DF91C1
:103DF000CF911F910895CE2FD0E01E9FF001112486
:103E0000EF59FC4F4081518162817381848195819A
:103E10000E94DD1EFE013196E770E5CF40919103CF
:103E20005091920360919303709194038091950354
:103E3000909196030C94DD1E1F93CF93DF93809196
:103E40009603807FA9F480919303882389F0809161
:103E50005F03C09160036091910370919203A09100
:103E60009403B0919503D62FD72316E0C81304C04E
:103E7000DF91CF911F91089590E0109711F0DF3FEF
:103E800019F401968770F2CF189F9001199F300D99
:103E90001124F901EF59FC4F41814713F2CF4081C2
:103EA0004613EFCF42814111ECCF438154814A1B2D
:103EB0005B0B4436510528F7809196038F70806123
:103EC00080939603F901EA59FC4F80818F708061DD
:103ED000808381E993E00E946B1EDF91CF911F9157
:103EE0000C94ED1EAF92BF92CF92DF92EF92FF92B1
:103EF0000F931F93CF93DF93CDB7DEB72B970FB6FA
:103F0000F894DEBF0FBECDBF8C0185E0F801DE0165
:103F1000179601900D928A95E1F7F8014081518141
:103F2000E28081E9C82E83E0D82E609194037091DD
:103F300095036115710509F432C1909191032091A7
:103F40009203822F89238F3F09F429C1A380B48073
:103F5000F0909303F501E61BF70BFF2009F4EEC088
:103F600080919603382F307FE436F10508F0C0C009
:103F7000311179C0FE2C251323C0941321C0E11008
:103F80001FC08F708061809396030E940E1FC60130
:103F90000E946B1E80919603F80185838F2D2B96CE
:103FA0000FB6F894DEBF0FBECDBFDF91CF911F914A
:103FB0000F91FF90EF90DF90CF90BF90AF9008955A
:103FC000AB2829F0842F85238F3F09F004C180E0BE
:103FD000F82FF170DF2EE0915F032091600336E04F
:103FE00080FD1CC0EE20D1F2809196038160809309
:103FF0009603F12CD3CF8E2F90E03E9FF001112439
:10400000EF59FC4F6181651306C06081641303C0E2
:104010006281E612E7CFFC013196E770E213EBCF45
:104020004F8358878F8198850E94FD23292F2295E1
:104030002F70903260F0225F2F70223078F49F70E2
:1040400051F0F8019581907F31F4D12C0AC09F7016
:1040500011F08823D1F3805E8830B8F3C8010E9444
:104060006B1EFD2C9BCF251314C0941312C0E110BE
:1040700010C0F8018583C8010E946B1E86E0F8011C
:10408000A1E9B3E001900D928A95E1F70E940E1F1D
:1040900085CF4F8358878F8198850E94CA1E8823B9
:1040A00019F1EE2009F180919603803270F0209191
:1040B0009103309192033A8329831B82BD82AC82A3
:1040C0008E83CE0101960E946B1E86E0F801A1E965
:1040D000B3E001900D928A95E1F70E941C1F0E94A7
:1040E0000E1FFF24F3945ACFC8010E946B1EF9CF14
:1040F000311113C07A2DBB86AA866E2D8B850E9446
:10410000CE1E81E993E00E946B1E86E0F6011192BB
:104110008A95E9F70E940E1F6CCF2513BACF94132E
:10412000B8CFE110B6CFF8018583C8010E946B1E9D
:1041300086E0F60111928A95E9F730CFE436F10571
:1041400008F5FE2CEE2081F225130BC0941309C054
:1041500086E0F801A1E9B3E001900D928A95E1F7BC
:104160001DCF4F8358878F8198850E94CA1E811169
:10417000ACCF80919603816080939603C8010E9422
:104180006B1E0CCF7A2DBB86AA866E2D8B850E9466
:10419000CE1E86E0F60111928A95E9F777CFEE20E0
:1041A00009F4A2CF4F8358878F8198850E94CA1E39
:1041B000F82E882309F498CF86E0F801A1E9B3E04E
:1041C00001900D928A95E1F781E993E00E94A51B89
:1041D0000E941C1F5BCF81E08E25FACE1F93CF93E8
:1041E000DF93CDB7DEB72C970FB6F894DEBF0FBEC6
:1041F000CDBF4F83588769877A878B879C87CE018D
:1042000007960E94721F882369F08A859B85892BF7
:1042100039F04F815885842F85238F3F09F077C06F
:1042200016E065C086E0FE013796DE01119601902A
:104230000D928A95E1F76A857B856115710581F399
:104240005F814885842F85238F3F51F32091600340
:1042500030E0C901019687709927E0915F03E81764
:10426000190671F40E949D1E1092600310925F0364
:1042700086E0E1E9F3E0DF011D928A95E9F7D0CF0E
:1042800059834A837D836C8396E0929FD001939FEC
:10429000B00D1124AF59BC4FFE01319601900D9223
:1042A0009A95E1F7809360030E94ED1EB9CF819F3C
:1042B000C00111248F599C4F0E94721F8823E9F07E
:1042C000E0915F031E9FF0011124EF59FC4F4081E4
:1042D000518162817381848195810E94DD1E80916C
:1042E0005F0390E001968770992780935F03809128
:1042F0005F03909160038913DACF2C960FB6F89480
:10430000DEBF0FBECDBFDF91CF911F9108956985AC
:104310007A858B859C850E94DD1E82CF08950C9442
:104320008E210E948F216093C3037093C4038093F6
:10433000C5039093C6030C94931E08950C94912189
:10434000CF93DF9300D000D0CDB7DEB769837A83F7
:104350008B839C838091C3039091C403A091C50378
:10436000B091C60329813A814B815C81282B392B7E
:104370004A2B5B2B29833A834B835C83CA01B901A7
:104380000F900F900F900F90DF91CF910C9491218F
:10439000CF93DF9300D000D0CDB7DEB769837A83A7
:1043A0008B839C838091C3039091C403A091C50328
:1043B000B091C60329813A814B815C81282339233E
:1043C0004A235B2329833A834B835C83CA01B90167
:1043D0000F900F900F900F90DF91CF910C9491213F
:1043E000CF93DF9300D000D0CDB7DEB769837A8357
:1043F0008B839C838091C3039091C403A091C503D8
:10440000B091C60329813A814B815C8128273927E5
:104410004A275B2729833A834B835C83CA01B9010E
:104420000F900F900F900F90DF91CF910C949121EE
:104430000C948E210C9418220E941A226093BF03C0
:104440007093C0038093C1039093C2030C94931E96
:1044500060E070E0CB010C941C220F931F93CF936C
:10446000DF9300D000D0CDB7DEB741E050E060E090
:1044700070E08A019B0104C0000F111F221F331F2F
:104480008A95D2F709831A832B833C83C901B8012B
:104490000F900F900F900F90DF91CF911F910F9180
:1044A0000C941C220F931F93CF93DF9300D000D066
:1044B000CDB7DEB741E050E060E070E004C0440FEB
:1044C000551F661F771F8A95D2F78091BF03909181
:1044D000C003A091C103B091C2038A019B01082BC4
:1044E000192B2A2B3B2B09831A832B833C83C9016D
:1044F000B8010F900F900F900F90DF91CF911F9107
:104500000F910C941C220F931F93CF93DF9300D035
:1045100000D0CDB7DEB741E050E060E070E004C00D
:10452000440F551F661F771F8A95D2F74095509507
:10453000609570958091BF039091C003A091C103D5
:10454000B091C2038A019B01082319232A233B232C
:1045500009831A832B833C83C901B8010F900F9004
:104560000F900F90DF91CF911F910F910C941C220F
:104570000F931F93CF93DF9300D000D0CDB7DEB75A
:1045800041E050E060E070E004C0440F551F661F3A
:10459000771F8A95D2F78091BF039091C003A091B5
:1045A000C103B091C2038A019B01082719272A275A
:1045B0003B2709831A832B833C83C901B8010F90E1
:1045C0000F900F900F90DF91CF911F910F910C944E
:1045D0001C22CF93DF9300D000D0CDB7DEB7698324
:1045E0007A838B839C838091BF039091C003A091B9
:1045F000C103B091C20329813A814B815C81282B90
:10460000392B4A2B5B2B29833A834B835C83CA016A
:10461000B9010F900F900F900F90DF91CF910C94F4
:104620001C22CF93DF9300D000D0CDB7DEB76983D3
:104630007A838B839C838091BF039091C003A09168
:10464000C103B091C20329813A814B815C81282347
:1046500039234A235B2329833A834B835C83CA0132
:10466000B9010F900F900F900F90DF91CF910C94A4
:104670001C22CF93DF9300D000D0CDB7DEB7698383
:104680007A838B839C838091BF039091C003A09118
:10469000C103B091C20329813A814B815C812827F3
:1046A00039274A275B2729833A834B835C83CA01D6
:1046B000B9010F900F900F900F90DF91CF910C9454
:1046C0001C220895292F220FE22FE90FEE0FE80F89
:1046D0008E2F877041E001C0440F8A95EAF7E69576
:1046E000E695E69585E0E89FF0011124E956FC4F38
:1046F00030E020E070E05191DF011197CB01022EF4
:1047000002C0969587950A94E2F781708195852776
:10471000842385278C932F5F3F4F2530310559F730
:104720000895292F220FE22FE90FEE0FE80F9E2F99
:104730009770E695E695E69585E0E89FF0011124EF
:10474000E956FC4F50E040E080E0219130E0092E36
:1047500002C0369527950A94E2F721703327042E7C
:1047600001C0220F0A94EAF7822B4F5F5F4F45305A
:10477000510559F70895BF92CF92DF92EF92FF92C1
:104780000F931F93CF93DF938C01C090BF03D09002
:10479000C003E090C103F090C2038091C3039091E5
:1047A000C403A091C503B091C603C82AD92AEA2A36
:1047B000FB2ACFE1D0E0BC2ED701C6010C2E04C0ED
:1047C000B695A795979587950A94D2F780FD0EC068
:1047D000219788F7B12C8B2DDF91CF911F910F91ED
:1047E000FF90EF90DF90CF90BF900895B8018C2F8D
:1047F0000E94EC07019761F3EECFCF93DF93D82FA0
:10480000C92F0E94BB236D2F7C2FDF91CF910C9479
:10481000EC071F93CF93DF93162FD72F90915E0352
:10482000992339F0862F972FDF91CF911F910C9408
:10483000FD23882391F0862F972F0E94BB23C82F3A
:10484000682F812F9D2F0E946223612F7D2F8C2F37
:10485000DF91CF911F910C94EC07862F972F0E9428
:104860009123C82FF2CF682F809166019091670144
:104870000C94F125682F80916601909167010C944A
:10488000F32580916601909167010C94F525809144
:10489000C70385958595859508958091C703877091
:1048A00008959091C703977081E009F480E008951E
:1048B0008091D30308959091D303982B9093D303C1
:1048C0000895982F90958091D30389238093D303E3
:1048D00008951092D30308959091D203982B90934A
:1048E000D2030895982F90958091D20389238093C5
:1048F000D20308951092D20308951092D10308951F
:104900008091C803089508950C9483249091C8035E
:10491000981721F08093C8030C9484240895809103
:10492000C803882329F01092C80380E00C948424E3
:104930000895E0916601F09167018091D30380832F
:10494000E0916601F091670180819091D203892BFB
:104950008083E0916601F091670180819091D1039D
:10496000892B80839091C803992381F0E09166019F
:10497000F09167018081892B8083809166019091FD
:1049800067010E94A52581110E948F2480916601F4
:10499000909167010C94861A08950C94CC2498E0A9
:1049A000899F90011124622B6093C7030E945222B9
:1049B0008091C7038595859585950C94CD2410929B
:1049C000C70380E00C94CD249091C7038095892380
:1049D0008093C703282F277071F4282F082E000C0E
:1049E000330B9217130639F08595859585950E94AE
:1049F00083220C94DF24089590E080E00E941B3114
:104A00009C0181E02C3E3E4F09F080E0089582E059
:104A100090E00C940D3183E090E00C940D31682F00
:104A200083E090E00C942131CF9384E090E00E94E9
:104A30000D31C82F81E290E00E940D31982F8C2F0C
:104A4000CF910895CF93682FC92F84E090E00E9402
:104A500021316C2F81E290E0CF910C942131AB0198
:104A6000BC018FE090E00C943331AB01BC0183E1D9
:104A700090E00C94333160E070E0CB010C9435256C
:104A800060E070E0CB010E942F250C943B256CEE7A
:104A90007EEF90E080E00E943F3160E082E090E0B5
:104AA0000E94213160E083E090E00E942131109269
:104AB000C3031092C4031092C5031092C60360E0B2
:104AC00084E090E00E94213160E081E290E00E9469
:104AD000213160E085E090E00E94213160E086E0D5
:104AE00090E00E9421316FEF87E090E00E94213139
:104AF00040E050E0BA0188E090E00E94333160E08D
:104B00008DE090E00E94213140E050E0BA0188E160
:104B100090E00E94333160E087E190E00E94213113
:104B200040E050E0BA018CE190E00E94333160E057
:104B300080E290E00E9421310C9440250C9447259E
:104B4000682F8EE090E00C942131AC019C012E5F27
:104B50003F4F485F5F4F80E02417350709F4089501
:104B6000F90191919F019923B9F38F5FF5CF9C01D2
:104B7000662351F0FC013296285F3F4F81918617E2
:104B800029F0E217F307D1F780E0089581E0089556
:104B90009C01FC0132968FEF90E04191461751F055
:104BA0008F3F19F4411101C0892F9F5F9630A9F7FB
:104BB0008F3F09F40895280F311D87FD3A95F901BB
:104BC000628308959C01FC013296285F3F4F8191DA
:104BD000861303C0DF0111971C92E217F307B9F7A0
:104BE00008950C94C8250C94E225FC01329686E0C9
:104BF000DF011D928A95E9F70895089508950C94B0
:104C0000FE250E94FF2580917706843049F110929D
:104C1000D50388E190E020E40FB6F894A89580933E
:104C200060000FBE2093600080E00E947E070E941B
:104C3000FF2583B7817F846083BF83B7816083BF93
:104C40007894889583B78E7F83BF0FB6F894A89524
:104C500080916000886180936000109260000FBEB8
:104C600008950895CF930E94FD250E94350A0E9461
:104C70003126C0E08C2F0E94A609811105C0CF5FAC
:104C8000CA30C1F7CF91089581E0FCCF08950C940C
:104C900046260E949D1E0E947A1A0E947E070C944E
:104CA00047261F921FB61F9211248F939F93AF9395
:104CB000BF938091D503811113C080916D069091AF
:104CC0006E06A0916F06B09170064196A11DB11DB0
:104CD00080936D0690936E06A0936F06B093700656
:104CE000BF91AF919F918F911F901FBE1F901895FC
:104CF00082E084BD93E095BD9AEF97BD80936E00EE
:104D000008952FB7F89480916D0690916E06A0914A
:104D10006F06B09170062FBF0895CF93DF9300D038
:104D200000D0CDB7DEB78FB7F89420916D063091E3
:104D30006E0640916F065091700629833A834B832B
:104D40005C838FBF69817A818B819C810F900F90EA
:104D50000F900F90DF91CF9108959C014FB7F89479
:104D600080916D0690916E06A0916F06B0917006CD
:104D70004FBF821B930B089578941F921FB61F920A
:104D800011248F939F93AF93BF9380916D06909161
:104D90006E06A0916F06B09170060196A11DB11D1F
:104DA00080936D0690936E06A0936F06B093700685
:104DB000BF91AF919F918F911F901FBE1F9018952B
:104DC00081E08093E00080E28093D8001092C900D7
:104DD0008FE19EE40197F1F700C0000087E090EBBF
:104DE000DC018093800690938106A0938206B093A5
:104DF000830688E19CE00FB6F894A8958093600044
:104E00000FBE90936000FFCFCF93DF9300D000D010
:104E1000CDB7DEB70E94FC24811102C00E949E25FE
:104E20000E9407258093D4030E9414259093720654
:104E3000809371060E940B25282F30E050E040E05F
:104E400029833A834B835C83CA01B9010F900F9089
:104E50000F900F90DF91CF910C949E218091DE03F3
:104E6000089508950895CF93DF93D82FC92F0E94F6
:104E7000D228823011F0843049F581E08093E90036
:104E80008FEF9091E800815095FD06C095ED9A95C1
:104E9000F1F700008111F5CF8091E80085FF16C081
:104EA00050E040E068E070E08D2F9C2F0E94EF28DA
:104EB0008091E8008E778093E80088E0ED2FFC2F4A
:104EC000A6EDB3E001900D928A95E1F7DF91CF91C5
:104ED0000895089580917606811109C00E94772A6D
:104EE0000E94D42A8091E20084608093E2000895B9
:104EF000109276060895089508950C94492642E08C
:104F000061EC81E00C94F32980917906893089F174
:104F100048F4823009F49DC0833009F458C08130D0
:104F200041F008958A3009F484C08B3009F46AC0D6
:104F3000089580917806813A09F048C08091E80090
:104F4000877F8093E80080917C0690917D06892B75
:104F500061F468E086ED93E070E00E943E29809164
:104F6000E8008B778093E800089560E090E080E0AF
:104F7000F3CF80917806813249F580917C0690913B
:104F80007D06892B19F58091E800877F8093E800E2
:104F90008091E80082FF16C09091F3008091F200AA
:104FA000029729F48091F1008B7F813021F4809168
:104FB000F1008093DE038091E8008B778093E80016
:104FC0000C94272A809177068111E2CF0895809171
:104FD0007806813AD9F780917C0690917D06892BDD
:104FE000A9F78091E800877F8093E8008091E8002E
:104FF00080FFFCCF809172018093F1008091E800E6
:105000008E77DCCF80917806813201F780917C0623
:1050100090917D06892BD1F68091E800877F80935F
:10502000E8000E94272A80917A06809372010C94EE
:105030009D1E80917806813249F68091E800877F35
:105040008093E8000E94272A80917B068093DF03EB
:10505000089580917806813A09F0B8CF8091E800F0
:10506000877F8093E8008091E80080FFFCCF8091EB
:10507000DF03C2CF84B7877F84BF0FB6F894A895AB
:1050800080916000886180936000109260000FBE84
:1050900080E890E00FB6F8948093610090936100EF
:1050A0000FBE0E94CB1A0E94772A0E94D42A8091B8
:1050B000E20084608093E20078940E945C2D0E945C
:1050C000D31A88E691E00E94751A809177068530A0
:1050D00019F00E94E01AF9CF0E940126809175060E
:1050E000882399F30E943226882379F30E94D928D5
:1050F000ECCF0C947B289C01FB01DA01832F9927CC
:1051000083309105C1F068F48130910509F43DC008
:10511000029761F482E290E028E33AE02D933C9319
:1051200008958132910519F1829741F190E080E074
:1051300030E020E0F3CFC90199272230A9F0833075
:10514000910550F4009769F0E0E2FAE0019771F7F9
:10515000849190E09F01E2CFEAE0FAE00397C1F387
:10516000E5CFE4E3FAE0F4CFE0E1FAE0F1CF89E063
:1051700090E02AE43AE0EF2BC9F6D0CF80E490E04B
:105180002CE63AE0EF2B91F6C9CF82E190E02AE5D8
:105190003AE0C4CF80917706843011F482E008951C
:1051A00081E008958091E003811102C00C94CA2827
:1051B000089580E189BD82E189BD09B400FEFDCF7B
:1051C0008091D8008F7D8093D8008091E00082602C
:1051D0008093E0008091E00081FDFCCF0895AF92C4
:1051E000BF92CF92DF92FF920F931F93CF93DF93E3
:1051F0006C01EB018A010E94462AF82E811123C01E
:105200000115110539F0F80180819181C81BD90B76
:10521000C80ED91EB12CA12C2097A9F08091E800CE
:1052200085FD22C08091E8008E778093E80001150B
:105230001105A1F0F80180819181A80EB91EB182FB
:10524000A08285E0F82E8F2DDF91CF911F910F91D5
:10525000FF90DF90CF90BF90AF9008950E94462AB4
:105260008823D1F2F82EEFCFF60181916F01809360
:10527000F1002197FFEFAF1ABF0ACECFFC01CB019F
:1052800020917E0630917F062617370790F0009711
:1052900029F42091E8002E772093E80040E0009761
:1052A00051F4411108C08091E80082FF31C080E0D4
:1052B0000895C901F3CF209177062223A9F1253063
:1052C000A9F12091E80023FD2DC02091E80022FDE6
:1052D000EACF2091E80020FFE2CF3091F300209147
:1052E000F200009719F02830310558F041E02830DD
:1052F000310509F040E02091E8002E772093E80086
:10530000CECF41914093F10001972F5F3F4FE9CFFE
:1053100080917706882341F0853041F08091E80044
:1053200083FFC1CF81E0089582E0089583E008956E
:10533000FC01CB0120917E0630917F0626173707AE
:1053400090F0009729F42091E8002E772093E80050
:1053500040E0009751F4411108C08091E80082FFBD
:1053600032C080E00895C901F3CF2091770622234F
:10537000B1F12530B1F12091E80023FD2EC020913C
:10538000E80022FDEACF2091E80020FFE2CF309133
:10539000F3002091F200009719F02830310558F001
:1053A00041E02830310509F040E02091E8002E77F7
:1053B0002093E800CECF44914093F10031960197BD
:1053C0002F5F3F4FE8CF80917706882341F08530EB
:1053D00041F08091E80083FFC0CF81E0089582E032
:1053E000089583E00895982F973028F08F70809368
:1053F000E90081E008959093E900242F762F50E092
:10540000981731F07091EC002091ED005091F00070
:1054100021FD02C09F5FE8CF3091EB003E7F3093CB
:10542000EB003091ED003D7F3093ED003091EB00CB
:1054300031603093EB007093EC002093ED005093BB
:10544000F0002091EE0027FDE5CF80E008958091E7
:10545000780687FF13C08091E80082FF06C0809124
:10546000E8008B778093E80004C080917706811173
:10547000F2CF0895809177068823D9F38091E800D0
:1054800080FFF8CF8091E8008E77ECCF2091E40088
:105490003091E50095E6A9012091EC00822F817002
:1054A00020FF06C08091E80080FF06C080E00895DC
:1054B0002091E80022FD1AC080917706882389F0A8
:1054C000853089F08091EB0085FD0FC02091E400CC
:1054D0003091E50042175307F9F29150E1F684E06C
:1054E000089582E0089583E0089581E008950E9480
:1054F000E52A0E94ED2AE0EEF0E080818160808361
:10550000E8EDF0E080818F77808319BCA7EDB0E0F3
:105510008C918E7F8C9380818F7E80831092760613
:1055200008950F931F93CF93DF930E94E52A0E9463
:10553000ED2AC8EDD0E088818F77888388818068E4
:10554000888388818F7D888319BC1092770610929A
:105550007306109275061092740600EE10E0F801C2
:1055600080818B7F808388818160888342E060E0D6
:1055700080E00E94F329E1EEF0E080818E7F80835D
:10558000E2EEF0E0808181608083808188608083AA
:10559000F80180818E7F8083888180618883DF919C
:1055A000CF911F910F910895E8EDF0E080818F7EFB
:1055B0008083E7EDF0E080818160808384E082BFBA
:1055C00081E0809376060C94912AE8EDF0E08081EA
:1055D0008E7F80831092E20008951092DA0010927C
:1055E000E10008951F920F920FB60F9211242F938E
:1055F0003F934F935F936F937F938F939F93AF935B
:10560000BF93EF93FF938091E10082FF0BC08091E5
:10561000E20082FF07C08091E1008B7F8093E10070
:105620000E945B2D8091DA0080FF19C08091D80024
:1056300080FF15C08091DA008E7F8093DA00809120
:10564000D90080FF94C080E189BD82E189BD09B4A1
:1056500000FEFDCF81E0809377060E946A2780914B
:10566000E10080FF19C08091E20080FF15C08091A9
:10567000E2008E7F8093E2008091E200806180935F
:10568000E2008091D80080628093D80019BC85E048
:10569000809377060E947C278091E10084FF29C0D7
:1056A0008091E20084FF25C080E189BD82E189BD4F
:1056B00009B400FEFDCF8091D8008F7D8093D80083
:1056C0008091E1008F7E8093E1008091E2008F7EE7
:1056D0008093E2008091E20081608093E2008091FB
:1056E0007306882309F449C084E0809377060E94FA
:1056F0007D278091E10083FF29C08091E20083FF34
:1057000025C08091E100877F8093E10082E0809353
:105710007706109273068091E1008E7F8093E100FE
:105720008091E2008E7F8093E2008091E2008061B0
:105730008093E20042E060E080E00E94F3298091E3
:10574000F00088608093F0000E947B27FF91EF912A
:10575000BF91AF919F918F917F916F915F914F9189
:105760003F912F910F900FBE0F901F90189519BC6D
:10577000109277060E94782772CF8091E30087FD10
:1057800002C081E0B2CF83E0B0CF1F920F920FB67C
:105790000F9211242F933F934F935F936F937F93B7
:1057A0008F939F93AF93BF93CF93DF93EF93FF9329
:1057B000D091E900DF708091EC00C82FC17080FDAE
:1057C000C0E81092E9008091F000877F8093F0009C
:1057D00078940E94092C1092E9008091F000886072
:1057E0008093F000CD2BCF70C093E900FF91EF9133
:1057F000DF91CF91BF91AF919F918F917F916F91E9
:105800005F914F913F912F910F900FBE0F901F907E
:1058100018951F93CF93DF93CDB7DEB7AA970FB636
:10582000F894DEBF0FBECDBF88E796E0FC0101967D
:105830002091F100208326E080389207B9F70E947A
:1058400084278091E80083FF1EC1809178069091A3
:1058500079069A3008F017C1E92FF0E0EF5DFD4CB2
:105860000C94B92D803899F0823809F00CC18091E0
:105870007C068F70873008F006C18093E900809124
:10588000EB0085FB882780F91092E90006C0809123
:10589000740690917506911182609091E800977F4F
:1058A0009093E8008093F1001092F1008091E8005D
:1058B0008E77E5C0882309F4D3C0823009F0E3C0B5
:1058C00080917A068111D6C080917C068F702FEF6F
:1058D000280F263008F0D7C08093E9002091EB0014
:1058E00020FFC8C0933031F48091EB008062809338
:1058F000EB00C0C09091EB0090619093EB0021E031
:1059000030E001C0220F8A95EAF72093EA00109256
:10591000EA008091EB008860EACF8111B4C0109159
:105920007A061F778091E3008078812B8093E300D3
:105930008091E800877F8093E8000E94272A809169
:10594000E80080FFFCCF8091E30080688093E30053
:1059500082E0111183E08093770695C080588230F1
:1059600008F091C080917A0690917B068C3D23E0EF
:105970009207A1F583E08A838AE289834FB7F8947E
:10598000DE01139620E03EE051E2E32FF0E0509379
:105990005700E49120FF03C0E295EF703F5FEF7086
:1059A0008E2F90E0EA30C0F0C7968D939D932F5FC5
:1059B000243159F74FBF8091E800877F8093E8003A
:1059C0006AE270E0CE0101960E943E298091E800D3
:1059D0008B778093E80057C0C096E7CF60917C0634
:1059E00070917D06AE014F5F5F4F0E947928BC0128
:1059F000892B09F448C08091E800877F8093E800F4
:105A000089819A810E949829E1CF8038E1F58091BF
:105A1000E800877F8093E800809173068093F1000F
:105A200045CF811130C090917A06923060F5809117
:105A3000E800877F8093E800909373060E94272AEE
:105A400080917306882311F084E005C08091E30003
:105A500087FDFACF81E0809377060E947F2713C0ED
:105A600080917A06813079F481E0933009F080E00A
:105A7000809375061092E9008091E800877F8093FB
:105A8000E8000E94272A8091E80083FF0AC08091E5
:105A9000E800877F8093E8008091EB00806280932C
:105AA000EB00AA960FB6F894DEBF0FBECDBFDF9114
:105AB000CF911F9108950895CF9380917706882301
:105AC000A1F0C091E900CF709091EC00892F817016
:105AD00090FD80E8C82B1092E9008091E80083FDDA
